:100DC5006469737374616E63652069733A006F7645
:100DD500657220746865206C6F6E67657374206436
:100DE500697374616E63650030313233343536377B
:050DF50038392E2D4DE0
:100E5800010E0002080000040A00000000C100049E
:050E68000F0000000076
:080DFA00D286C2857F327E0023
:100E02007D647C00EF4E6007EF1F70F81E80F5EDE9
:090E12001DAE0470011C4E70F6C7
:010E1B0022B4
:040EB0007FE6DFFEFC
:010EB400221B
:100E940075A0FFC287120DFAD285E5A0339201A294
:010EA400014C
:010EA500222A
:040E3D007D017C00B7
:100E41008C138D14AB07120E9440FB8BA0C287C28A
:070E510086120DFCD2852280
:100E6E00AB07120E9440FB8BA0D287C286120DFCEC
:030E7E00D28522F8
:0A0EA600D287120DFAD285AFA02208
:100D8E00E4F5A0C285FDFC7F38120E41120DFE7FE8
:100D9E0038120E3D120DFE7F0F120E3D7D017C00AE
:100DAE007F01120E417D017C007F06120E417D01F6
:070DBE007C007F80020E4162
:040E1C0093FB7D01C6
:100E2000AE07AA0353050153060FED6003430640C6
:0D0E3000430680AF06120E3DAF02020E6EAB
:03000B00020EB52D
:030EB500D2003236
:100E8100D2B30000000000000000000000000000DC
:030E9100C2B322C7
:100B5200AF8CEFFEAD8A7C00E42DF509EC3EF50882
:100B6200E4F58CF58AAC08AD091209AB7B9A7A9947
:100B720079D9783F120800E4FBFA79C87842120961
:100B8200091209E48F0D8E0C8D0B8C0AE47FBC7E5A
:100B920002FDFCAB0DAA0CA90BA80AC3120B415013
:100BA2000330000BC2007B467D01E4FF020CABE484
:100BB2007F0AFEFDFCAB0DAA0CA90BA80AC3120BFF
:100BC20041501DE4F5907F507EC3120E027590FFD6
:100BD2007F507EC3120E027EC8B2B6120EB0DEF98C
:100BE200E47BE87A03F9F8AF0DAE0CAD0BAC0A1258
:100BF2000AA1AC00AD01AE02AF03E47B64FAF9F8DE
:100C0200120AA18F0FE47BE87A03F9F8AF0DAE0C5C
:100C1200AD0BAC0A120AA1AC00AD01AE02AF03E407
:100C22007B64FAF9F8120AA1AC00AD01AE02AF037F
:100C3200E47B0AFAF9F8120AA18F10E47BE87A033E
:100C4200F9F8AF0DAE0CAD0BAC0A120AA1AC00ADB7
:100C520001AE02AF03E47B0AFAF9F8120AA1AC0072
:100C6200AD01AE02AF03E47B0AFAF9F8120AA1AFB2
:100C7200038F11E50F900DED93FB7D01E4FF120E42
:100C820020900DF7E47F01120E1CE510900DED7F10
:100C920002120E1CE51193FB7D017F03120E2090C0
:0C0CA2000DF9E493FB7D017F04120E208D
:010CAE002223
:100D3B00E4F97F907E01120E02120D8E7F907E01E0
:100D4B00120E02E9900DC593FB600AAF01E4FD1290
:100D5B000E200980EE7B547D01E4FF120E20758975
:100D6B0001E4F58CF58AD2A9D2AF120E8130B4FD15
:100D7B00D28C20B4FDC28C120B527F807E38120EA7
:030D8B000280E7FC
:10080000EC4D6011E8497017ED33EC3304600DE4F2
:10081000FCFFFEFD22E933E8330470F8020A5012AF
:100820000A1B58046009E4CC2481500628500902B0
:100830000A5A284003020A57C0E0EB4A7044B980C4
:1008400006D0E0FB020A46EF4E701CBD8008EBFFAD
:10085000EAFEE9FD80EBE98DF0A4FEE5F00208E98F
:10086000E9CDF9EAFEEBFFEF89F0A4FCE5F0CE89D3
:10087000F0A42EFFE435F0CD89F0A42DFEE435F090
:100880008067EF4E7005BD80D780C3EF8BF0A4ACBE
:10089000F0EE8BF0A42CFCE435F0F8EF8AF0A42CF9
:1008A000E5F038FCE433CB8DF0A42CFCE5F03BF80C
:1008B000EE8AF0A42CFCE5F038F8E433CF89F0A4FC
:1008C0002CFCE5F038CF3400CE89F0A42FFFE5F002
:1008D0003EFEE433C98DF0A42EFEE5F039CD8AF05A
:1008E000A42FFFE5F03EFEE43DFD33D0E0FB5007D2
:1008F0000BBB000F020A5AEC2CFCEF33FFEE33FE69
:06090000ED33FD020A3296
:10090600020A5AEC5D046005E859047003020A50B5
:10091600120A1B580460F6EC4860F2EC7004FDFE07
:10092600FF22C860DB2481C85009C39860025006C4
:10093600020A579850CAF582E9294B4A7005AB82DC
:10094600020A4675F0007C1A7880C3EF9BEE9AED9A
:1009560099400DC3EF9BFFEE9AFEED99FDE842F03C
:10096600DC23ACF0D0E0FFD0E0FED0E0FDAB82208F
:10097600E7101BEB60BAEC2CFCEF33FFEE33FEED19
:1009860033FD020A32E803F830E705C0F075F000DF
:10099600EF2FFFEE33FEED33FD40B830E7C280AAFD
:1009A60075F020800E75F010800575F0087D007ECC
:1009B600007F003392D530D503120B33EC33401051
:1009C600EF33FFEE33FEED33FDEC33FCD5F0ED22D5
:0E09D600E5F0247EA2D513CC92E7CDCEFF2211
:1009E400EDD2E7CD33EC3392D524814006E4FFFE0B
:1009F400FDFC22FCE4CFCECDCC24E0501174FF806A
:100A0400EDC3CC13CCCD13CDCE13CECF13CF047006
:070A1400F030D5DE020B33C8
:100A1B00E9D2E7C933E833F892D5EDD2E7CD33EC21
:070A2B0033FC5002B2D5229A
:100A3200EC30E7100FBF000C0EBE00080DBD000425
:100A42000BEB6014A2D5EB13FCED92E7FD2274FFD1
:100A5200FCFDFEFF22E480F8A2D574FF13FC7D802A
:030A6200E480EF3E
:03000000020CAF40
:0C0CAF00787FE4F6D8FD758120020CF679
:100A650075F008758200EF2FFFEE33FECD33CDCC48
:100A750033CCC58233C5829BED9AEC99E5829840CB
:100A85000CF582EE9BFEED9AFDEC99FC0FD5F0D6A8
:100A9500E4CEFBE4CDFAE4CCF9A88222B800C1B9D2
:100AA5000059BA002DEC8BF084CFCECDFCE5F0CB10
:100AB500F97818EF2FFFEE33FEED33FDEC33FCEB49
:100AC50033FB10D703994004EB99FB0FD8E5E4F904
:100AD500FA227818EF2FFFEE33FEED33FDEC33FCF1
:100AE500C933C910D7059BE99A4007EC9BFCE99AE5
:100AF500F90FD8E0E4C9FAE4CCFB2275F010EF2F2A
:100B0500FFEE33FEED33FDCC33CCC833C810D70729
:100B15009BEC9AE899400AED9BFDEC9AFCE899F864
:0E0B25000FD5F0DAE4CDFBE4CCFAE4C8F922F7
:0E0B3300C3E49FFFE49EFEE49DFDE49CFC22D3
:100B4100EB9FF5F0EA9E42F0E99D42F0E89C45F00A
:010B51002281
:100CBB00020D3BE493A3F8E493A34003F68001F207
:100CCB0008DFF48029E493A3F85407240CC8C3333A
:100CDB00C4540F4420C8834004F456800146F6DF09
:100CEB00E4800B0102040810204080900E58E47E33
:100CFB00019360BCA3FF543F30E509541FFEE493FE
:100D0B00A360010ECF54C025E060A840B8E493A3C4
:100D1B00FAE493A3F8E493A3C8C582C8CAC583CAEF
:100D2B00F0A3C8C582C8CAC583CADFE9DEE780BEA7
:010E6D000084
:00000001FF
