:08083700D286C2857F327E00EB
:10083F007D647C00EF4E6007EF1F70F81E80F5EDB2
:09084F001DAE0470011C4E70F690
:01085800227D
:1008BF0075A0FFC287120837D285E5A0339200A238
:0108CF000028
:0108D0002205
:040876007D017C0084
:10087A008C088D09AB071208BF40FB8BA0C287C248
:07088A0086120839D2852215
:1008AC00AB071208BF40FB8BA0D287C28612083957
:0308BC00D28522C0
:0A08DD00D287120837D285AFA0229F
:10080000E4F5A0C285FDFC7F3812087A12083B7F10
:100810003812087612083B7F0E1208767D017C00A4
:100820007F0112087A7D017C007F0612087A7D0123
:070830007C007F8002087AC2
:10085900AE07AA0353050153060FED600343064093
:0D086900430680AF06120876AF020208AC0D
:100891007F907E0112083F1208007F907E011208AE
:0B08A1003F7B63E4FDFF12085980FE5E
:030000000208D122
:0C08D100787FE4F6D8FD758120020891C4
:00000001FF
