:101029006469737374616E63652069733A006F76DE
:1010390065722072616E6765007361666520726111
:101049006E67653A002020202020202020202020C3
:1010590020202020200030313233343536373839DA
:031069002E2D4DDC
:1010E700011200020A0000040E00000000C1000403
:0F10F70013000000000208000A010D00010C00A8
:0810A300C286C2857F327E0087
:1010AB007D647C00EF4E6007EF1F70F81E80F5ED3E
:0910BB001DAE0470011C4E70F61C
:0110C4002209
:041174007FE6DFFE35
:011178002254
:10113C0075A0FFC287D2861210A5D285E5A0339286
:03114C0001A201FC
:01114F00227D
:041123007D017C00CE
:101127008C1C8D1DAB0712113C40FB8BA0C2871294
:0511370010A3D2852287
:10116300AB0712113C40FB8BA0D2871210A3D28590
:011173002259
:06110700E50C04FFE4FD0D
:10110D00ED7006EF2480FA8004EF24C0FAAF027D63
:06111D00017C0002112715
:10106C00E4F5A0C285FDFC7F381211271210A77F72
:10107C00381211231210A77F0F1211237D017C004F
:10108C007F011211277D017C007F061211277D0143
:07109C007C007F8002112798
:0510C500E493FB7D0136
:1010CA00AE07AA0353050153060FED60034306401A
:0D10DA00430680AF06121123AF020211631E
:060F9300AB09AA08E4FD11
:040F99008F188D1907
:100F9D007C007D0AAF03AE02120A658C1A8D1BAE62
:100FAD0002AF037C007D0A120A65745F2FF582740F
:100FBD00103EF583E493FBAD19AF181210CAE51876
:100FCD0004FF745F251BF5827410351AF583E493C5
:060FDD00FBAD190210CA71
:03000B0002117966
:03117900D200326F
:10115000D28100000000000000000000000000003C
:03116000C2812227
:100C2C00E4F517F5187519C8AF8CEFFEAD8A7C008A
:100C3C00E42DF50BEC3EF50AE4F58CF58AAC0AAD27
:100C4C000B1209AB7B9A7A9979D9783F120800E498
:100C5C00FBFA79C878421209091209E48F118E1037
:100C6C008D0F8C0EE47FBC7E02FDFCAB11AA10A98B
:100C7C000FA80EC3120BC65003300019C200E517A3
:100C8C0090103793FB7003020E167D01AF171210F4
:100C9C00CA051780E9AE08AF09EE3395E0FDFCAB51
:100CAC0011AA10A90FA80EC3120BC6507CE4F59024
:100CBC007F887E131210AB7590FFE47F05FEFDFC60
:100CCC00AB11AA10A90FA80EC3120BC65018E51928
:100CDC001519AE18700215184E604EB2B67F017E13
:100CEC00001210AB80E87517C8B2B612117412114D
:100CFC00741517E517D3940050EFE47F64FEFDFCE8
:100D0C00AB11AA10A90FA80E120A9B8E188F19D31B
:100D1C00E5199400E51864809480400D121174E577
:100D2C001915197002151880E6E47BE87A03F9F8B6
:100D3C00AF11AE10AD0FAC0E120B26AC00AD01AE68
:100D4C0002AF03E47B64FAF9F8120B268F13E47BF1
:100D5C00E87A03F9F8AF11AE10AD0FAC0E120B26FA
:100D6C00AC00AD01AE02AF03E47B64FAF9F8120BF0
:100D7C0026AC00AD01AE02AF03E47B0AFAF9F8121F
:100D8C000B268F14E47BE87A03F9F8AF11AE10ADA3
:100D9C000FAC0E120B26AC00AD01AE02AF03E47B20
:100DAC000AFAF9F8120B26AC00AD01AE02AF03E45F
:100DBC007B0AFAF9F8120B26AF038F15E513901086
:100DCC005F93FB7D01E4FF1210CA9010697F011242
:100DDC0010C5E51490105F93FB7D017F021210CAC1
:100DEC00E51593FB7D017F031210CA90106B7F04F5
:100DFC001210C5751705E51790104E93FB600B7D0F
:0A0E0C0001AF171210CA051780ECA1
:010E160022B9
:100E1700E4F920B53F12117420B50730B5FD050D73
:100E2700C28CE990104293FB600AAF01E4FD1210F7
:100E3700CA0980EE8917890CE990104E93FB600A66
:100E4700AF01E4FD1210CA0980EEAF17120F93E548
:100E570017121109E50D7003020F0620B42E1211A7
:100E67007420B42830B4FDD3E5099408E5086480FC
:100E77009480400AE5091509700A15088006750867
:100E87000075090FAF0C120F9312110720B335121B
:100E9700117420B32F30B3FDC3E509940FE508643F
:100EA700809480500B0509E50970020508FB80084E
:100EB700750800750908AB09AA08E4FDAF0C120F05
:100EC7009912110720B28D12117420B28730B2FD2A
:100ED700E4F50DF9E990104E93FB600AAF01E4FDCC
:100EE7001210CA0980EEE4F9E990102993FB600A11
:0F0EF700AF01E4FD1210CA0980EED28C020E5B2F
:010F060022C8
:100FE300E4F97F907E011210AB12106C7F907E01AA
:100FF3001210ABE990102993FB600AAF01E4FD12D4
:1010030010CA0980EE758901E4F58CF58AD2A9D25C
:10101300AF1211503082FDD28C2082FDC28C120C93
:061023002C120E1780EBF9
:10080000EC4D6011E8497017ED33EC3304600DE4F2
:10081000FCFFFEFD22E933E8330470F8020A5012AF
:100820000A1B58046009E4CC2481500628500902B0
:100830000A5A284003020A57C0E0EB4A7044B980C4
:1008400006D0E0FB020A46EF4E701CBD8008EBFFAD
:10085000EAFEE9FD80EBE98DF0A4FEE5F00208E98F
:10086000E9CDF9EAFEEBFFEF89F0A4FCE5F0CE89D3
:10087000F0A42EFFE435F0CD89F0A42DFEE435F090
:100880008067EF4E7005BD80D780C3EF8BF0A4ACBE
:10089000F0EE8BF0A42CFCE435F0F8EF8AF0A42CF9
:1008A000E5F038FCE433CB8DF0A42CFCE5F03BF80C
:1008B000EE8AF0A42CFCE5F038F8E433CF89F0A4FC
:1008C0002CFCE5F038CF3400CE89F0A42FFFE5F002
:1008D0003EFEE433C98DF0A42EFEE5F039CD8AF05A
:1008E000A42FFFE5F03EFEE43DFD33D0E0FB5007D2
:1008F0000BBB000F020A5AEC2CFCEF33FFEE33FE69
:06090000ED33FD020A3296
:10090600020A5AEC5D046005E859047003020A50B5
:10091600120A1B580460F6EC4860F2EC7004FDFE07
:10092600FF22C860DB2481C85009C39860025006C4
:10093600020A579850CAF582E9294B4A7005AB82DC
:10094600020A4675F0007C1A7880C3EF9BEE9AED9A
:1009560099400DC3EF9BFFEE9AFEED99FDE842F03C
:10096600DC23ACF0D0E0FFD0E0FED0E0FDAB82208F
:10097600E7101BEB60BAEC2CFCEF33FFEE33FEED19
:1009860033FD020A32E803F830E705C0F075F000DF
:10099600EF2FFFEE33FEED33FD40B830E7C280AAFD
:1009A60075F020800E75F010800575F0087D007ECC
:1009B600007F003392D530D503120BB8EC334010CC
:1009C600EF33FFEE33FEED33FDEC33FCD5F0ED22D5
:0E09D600E5F0247EA2D513CC92E7CDCEFF2211
:1009E400EDD2E7CD33EC3392D524814006E4FFFE0B
:1009F400FDFC22FCE4CFCECDCC24E0501174FF806A
:100A0400EDC3CC13CCCD13CDCE13CECF13CF047006
:070A1400F030D5DE020BB843
:100A1B00E9D2E7C933E833F892D5EDD2E7CD33EC21
:070A2B0033FC5002B2D5229A
:100A3200EC30E7100FBF000C0EBE00080DBD000425
:100A42000BEB6014A2D5EB13FCED92E7FD2274FFD1
:100A5200FCFDFEFF22E480F8A2D574FF13FC7D802A
:030A6200E480EF3E
:03000000020F07E5
:0C0F0700787FE4F6D8FD758120020F4EC3
:100A6500C2D5EC30E709B2D5E4C39DFDE49CFCEEAC
:100A750030E715B2D5E4C39FFFE49EFE120BD7C342
:100A8500E49DFDE49CFC8003120BD730D507C3E43D
:060A95009FFFE49EFE221B
:100A9B00E88FF0A4CC8BF0A42CFCE98EF0A42CFCFA
:100AAB008AF0EDA42CFCEA8EF0A4CDA8F08BF0A478
:100ABB002DCC3825F0FDE98FF0A42CCD35F0FCEBD7
:100ACB008EF0A4FEA9F0EB8FF0A4CFC5F02ECD399C
:0F0ADB00FEE43CFCEAA42DCE35F0FDE43CFC2209
:100AEA0075F008758200EF2FFFEE33FECD33CDCCC3
:100AFA0033CCC58233C5829BED9AEC99E582984046
:100B0A000CF582EE9BFEED9AFDEC99FC0FD5F0D622
:100B1A00E4CEFBE4CDFAE4CCF9A88222B800C1B94C
:100B2A000059BA002DEC8BF084CFCECDFCE5F0CB8A
:100B3A00F97818EF2FFFEE33FEED33FDEC33FCEBC3
:100B4A0033FB10D703994004EB99FB0FD8E5E4F97E
:100B5A00FA227818EF2FFFEE33FEED33FDEC33FC6B
:100B6A00C933C910D7059BE99A4007EC9BFCE99A5F
:100B7A00F90FD8E0E4C9FAE4CCFB2275F010EF2FA4
:100B8A00FFEE33FEED33FDCC33CCC833C810D707A4
:100B9A009BEC9AE899400AED9BFDEC9AFCE899F8DF
:0E0BAA000FD5F0DAE4CDFBE4CCFAE4C8F92272
:0E0BB800C3E49FFFE49EFEE49DFDE49CFC224E
:100BC600EB9FF5F0EA9E42F0E99D42F0E89C45F085
:010BD60022FC
:100F1300020FE3E493A3F8E493A34003F68001F202
:100F230008DFF48029E493A3F85407240CC8C333DF
:100F3300C4540F4420C8834004F456800146F6DFAE
:100F4300E4800B01020408102040809010E7E47E47
:100F5300019360BCA3FF543F30E509541FFEE493A3
:100F6300A360010ECF54C025E060A840B8E493A36A
:100F7300FAE493A3F8E493A3C8C582C8CAC583CA95
:100F8300F0A3C8C582C8CAC583CADFE9DEE780BE4D
:0111060000E8
:100BD700BC000BBE0029EF8DF084FFADF022E4CC02
:100BE700F875F008EF2FFFEE33FEEC33FCEE9DECCB
:100BF700984005FCEE9DFE0FD5F0E9E4CEFD22ED11
:100C0700F8F5F0EE8420D21CFEADF075F008EF2F5A
:100C1700FFED33FD4007985006D5F0F222C398FD4B
:050C27000FD5F0EA22E8
:00000001FF
